{"contracts/PaymentManager.sol":{"PaymentManager":{"abi":[{"anonymous":false,"inputs":[{"indexed":true,"internalType":"address","name":"user","type":"address"},{"indexed":false,"internalType":"uint256","name":"amount","type":"uint256"},{"indexed":false,"internalType":"uint256","name":"credits","type":"uint256"},{"indexed":false,"internalType":"uint256","name":"timestamp","type":"uint256"}],"name":"MessagePayment","type":"event"},{"anonymous":false,"inputs":[{"indexed":true,"internalType":"bytes32","name":"matchHash","type":"bytes32"},{"indexed":false,"internalType":"bytes32","name":"messageHash","type":"bytes32"},{"indexed":false,"internalType":"uint256","name":"timestamp","type":"uint256"}],"name":"MessageProofStored","type":"event"},{"anonymous":false,"inputs":[{"indexed":true,"internalType":"address","name":"user","type":"address"},{"indexed":false,"internalType":"uint256","name":"timestamp","type":"uint256"}],"name":"PremiumUnlocked","type":"event"},{"anonymous":false,"inputs":[{"indexed":true,"internalType":"address","name":"user","type":"address"},{"indexed":false,"internalType":"uint256","name":"amount","type":"uint256"},{"indexed":false,"internalType":"uint256","name":"timestamp","type":"uint256"}],"name":"SwipePayment","type":"event"},{"inputs":[{"internalType":"address","name":"user","type":"address"}],"name":"getMessageCredits","outputs":[{"internalType":"uint256","name":"","type":"uint256"}],"stateMutability":"view","type":"function"},{"inputs":[{"internalType":"address","name":"user","type":"address"}],"name":"isPremium","outputs":[{"internalType":"bool","name":"","type":"bool"}],"stateMutability":"view","type":"function"},{"inputs":[{"internalType":"address","name":"","type":"address"}],"name":"messageCredits","outputs":[{"internalType":"uint256","name":"","type":"uint256"}],"stateMutability":"view","type":"function"},{"inputs":[],"name":"messageFee","outputs":[{"internalType":"uint256","name":"","type":"uint256"}],"stateMutability":"view","type":"function"},{"inputs":[{"internalType":"uint256","name":"count","type":"uint256"}],"name":"payForMessages","outputs":[],"stateMutability":"payable","type":"function"},{"inputs":[],"name":"payForSwipe","outputs":[],"stateMutability":"payable","type":"function"},{"inputs":[],"name":"premiumUnlockFee","outputs":[{"internalType":"uint256","name":"","type":"uint256"}],"stateMutability":"view","type":"function"},{"inputs":[{"internalType":"address","name":"","type":"address"}],"name":"premiumUsers","outputs":[{"internalType":"bool","name":"","type":"bool"}],"stateMutability":"view","type":"function"},{"inputs":[{"internalType":"uint256","name":"_swipe","type":"uint256"},{"internalType":"uint256","name":"_message","type":"uint256"},{"internalType":"uint256","name":"_premium","type":"uint256"}],"name":"setFees","outputs":[],"stateMutability":"nonpayable","type":"function"},{"inputs":[{"internalType":"bytes32","name":"matchHash","type":"bytes32"},{"internalType":"bytes32","name":"messageHash","type":"bytes32"}],"name":"storeMessageProof","outputs":[],"stateMutability":"nonpayable","type":"function"},{"inputs":[],"name":"swipeFee","outputs":[{"internalType":"uint256","name":"","type":"uint256"}],"stateMutability":"view","type":"function"},{"inputs":[],"name":"unlockPremium","outputs":[],"stateMutability":"payable","type":"function"},{"stateMutability":"payable","type":"receive"}],"evm":{"bytecode":{"linkReferences":{},"object":"608060405266038d7ea4c680006000556601c6bf52634000600155662386f26fc1000060025534801561003157600080fd5b506106c2806100416000396000f3fe6080604052600436106100ab5760003560e01c80638477e0c1116100645780638477e0c114610191578063a9cb7dd3146101a7578063c4c8ffe3146101ba578063c5901fb2146101e7578063cec10c11146101fd578063e2b2d4821461022657600080fd5b80631327cd4c146100b757806317e28b06146100c15780631a90a219146100c957806348e4d030146100f25780635a1b853214610112578063742fe0d41461014857600080fd5b366100b257005b600080fd5b6100bf610256565b005b6100bf6102e3565b3480156100d557600080fd5b506100df60015481565b6040519081526020015b60405180910390f35b3480156100fe57600080fd5b506100bf61010d366004610598565b6103d3565b34801561011e57600080fd5b506100df61012d3660046105ba565b6001600160a01b031660009081526004602052604090205490565b34801561015457600080fd5b506101816101633660046105ba565b6001600160a01b031660009081526003602052604090205460ff1690565b60405190151581526020016100e9565b34801561019d57600080fd5b506100df60005481565b6100bf6101b53660046105ea565b610482565b3480156101c657600080fd5b506100df6101d53660046105ba565b60046020526000908152604090205481565b3480156101f357600080fd5b506100df60025481565b34801561020957600080fd5b506100bf610218366004610603565b600092909255600155600255565b34801561023257600080fd5b506101816102413660046105ba565b60036020526000908152604090205460ff1681565b6000543410156102a65760405162461bcd60e51b8152602060048201526016602482015275496e73756666696369656e742073776970652066656560501b60448201526064015b60405180910390fd5b6040805134815242602082015233917f5d01724342b7ae4b43eed5882c0fe27a14d12df4bad96cffcecf3e2986205db391015b60405180910390a2565b6002543410156103355760405162461bcd60e51b815260206004820152601860248201527f496e73756666696369656e74207072656d69756d206665650000000000000000604482015260640161029d565b3360009081526003602052604090205460ff16156103875760405162461bcd60e51b815260206004820152600f60248201526e416c7265616479207072656d69756d60881b604482015260640161029d565b3360008181526003602052604090819020805460ff19166001179055517f1d00a1bc2f11f9e4061e0f19ff5a272e28dc83fe00e60a0c72a40dceb34ee506906102d99042815260200190565b336000908152600460205260409020546104245760405162461bcd60e51b81526020600482015260126024820152714e6f206d657373616765206372656469747360701b604482015260640161029d565b33600090815260046020526040812080549161043f83610645565b90915550506040805182815242602082015283917f92c49139b3484c50631df7badeee401d454f0577900e9365fd47d70e93c8bf1f910160405180910390a25050565b600081116104d25760405162461bcd60e51b815260206004820152601b60248201527f4d75737420627579206174206c656173742031206d6573736167650000000000604482015260640161029d565b806001546104e0919061065c565b34101561052f5760405162461bcd60e51b815260206004820152601860248201527f496e73756666696369656e74206d657373616765206665650000000000000000604482015260640161029d565b336000908152600460205260408120805483929061054e908490610679565b909155505060408051348152602081018390524281830152905133917f15a9e60222e2e35396c069619078dd2be790e550926a626835872292643b142e919081900360600190a250565b600080604083850312156105ab57600080fd5b50508035926020909101359150565b6000602082840312156105cc57600080fd5b81356001600160a01b03811681146105e357600080fd5b9392505050565b6000602082840312156105fc57600080fd5b5035919050565b60008060006060848603121561061857600080fd5b505081359360208301359350604090920135919050565b634e487b7160e01b600052601160045260246000fd5b6000816106545761065461062f565b506000190190565b80820281158282048414176106735761067361062f565b92915050565b808201808211156106735761067361062f56fea26469706673582212203a974b55f55ecaad5cd439016a8ca1bec18ee5e344f452295f8fb6368dbfb34364736f6c63430008140033","opcodes":"PUSH1 0x80 PUSH1 0x40 MSTORE PUSH7 0x38D7EA4C68000 PUSH1 0x0 SSTORE PUSH7 0x1C6BF52634000 PUSH1 0x1 SSTORE PUSH7 0x2386F26FC10000 PUSH1 0x2 SSTORE CALLVALUE DUP1 ISZERO PUSH2 0x31 JUMPI PUSH1 0x0 DUP1 REVERT JUMPDEST POP PUSH2 0x6C2 DUP1 PUSH2 0x41 PUSH1 0x0 CODECOPY PUSH1 0x0 RETURN INVALID PUSH1 0x80 PUSH1 0x40 MSTORE PUSH1 0x4 CALLDATASIZE LT PUSH2 0xAB JUMPI PUSH1 0x0 CALLDATALOAD PUSH1 0xE0 SHR DUP1 PUSH4 0x8477E0C1 GT PUSH2 0x64 JUMPI DUP1 PUSH4 0x8477E0C1 EQ PUSH2 0x191 JUMPI DUP1 PUSH4 0xA9CB7DD3 EQ PUSH2 0x1A7 JUMPI DUP1 PUSH4 0xC4C8FFE3 EQ PUSH2 0x1BA JUMPI DUP1 PUSH4 0xC5901FB2 EQ PUSH2 0x1E7 JUMPI DUP1 PUSH4 0xCEC10C11 EQ PUSH2 0x1FD JUMPI DUP1 PUSH4 0xE2B2D482 EQ PUSH2 0x226 JUMPI PUSH1 0x0 DUP1 REVERT JUMPDEST DUP1 PUSH4 0x1327CD4C EQ PUSH2 0xB7 JUMPI DUP1 PUSH4 0x17E28B06 EQ PUSH2 0xC1 JUMPI DUP1 PUSH4 0x1A90A219 EQ PUSH2 0xC9 JUMPI DUP1 PUSH4 0x48E4D030 EQ PUSH2 0xF2 JUMPI DUP1 PUSH4 0x5A1B8532 EQ PUSH2 0x112 JUMPI DUP1 PUSH4 0x742FE0D4 EQ PUSH2 0x148 JUMPI PUSH1 0x0 DUP1 REVERT JUMPDEST CALLDATASIZE PUSH2 0xB2 JUMPI STOP JUMPDEST PUSH1 0x0 DUP1 REVERT JUMPDEST PUSH2 0xBF PUSH2 0x256 JUMP JUMPDEST STOP JUMPDEST PUSH2 0xBF PUSH2 0x2E3 JUMP JUMPDEST CALLVALUE DUP1 ISZERO PUSH2 0xD5 JUMPI PUSH1 0x0 DUP1 REVERT JUMPDEST POP PUSH2 0xDF PUSH1 0x1 SLOAD DUP2 JUMP JUMPDEST PUSH1 0x40 MLOAD SWAP1 DUP2 MSTORE PUSH1 0x20 ADD JUMPDEST PUSH1 0x40 MLOAD DUP1 SWAP2 SUB SWAP1 RETURN JUMPDEST CALLVALUE DUP1 ISZERO PUSH2 0xFE JUMPI PUSH1 0x0 DUP1 REVERT JUMPDEST POP PUSH2 0xBF PUSH2 0x10D CALLDATASIZE PUSH1 0x4 PUSH2 0x598 JUMP JUMPDEST PUSH2 0x3D3 JUMP JUMPDEST CALLVALUE DUP1 ISZERO PUSH2 0x11E JUMPI PUSH1 0x0 DUP1 REVERT JUMPDEST POP PUSH2 0xDF PUSH2 0x12D CALLDATASIZE PUSH1 0x4 PUSH2 0x5BA JUMP JUMPDEST PUSH1 0x1 PUSH1 0x1 PUSH1 0xA0 SHL SUB AND PUSH1 0x0 SWAP1 DUP2 MSTORE PUSH1 0x4 PUSH1 0x20 MSTORE PUSH1 0x40 SWAP1 KECCAK256 SLOAD SWAP1 JUMP JUMPDEST CALLVALUE DUP1 ISZERO PUSH2 0x154 JUMPI PUSH1 0x0 DUP1 REVERT JUMPDEST POP PUSH2 0x181 PUSH2 0x163 CALLDATASIZE PUSH1 0x4 PUSH2 0x5BA JUMP JUMPDEST PUSH1 0x1 PUSH1 0x1 PUSH1 0xA0 SHL SUB AND PUSH1 0x0 SWAP1 DUP2 MSTORE PUSH1 0x3 PUSH1 0x20 MSTORE PUSH1 0x40 SWAP1 KECCAK256 SLOAD PUSH1 0xFF AND SWAP1 JUMP JUMPDEST PUSH1 0x40 MLOAD SWAP1 ISZERO ISZERO DUP2 MSTORE PUSH1 0x20 ADD PUSH2 0xE9 JUMP JUMPDEST CALLVALUE DUP1 ISZERO PUSH2 0x19D JUMPI PUSH1 0x0 DUP1 REVERT JUMPDEST POP PUSH2 0xDF PUSH1 0x0 SLOAD DUP2 JUMP JUMPDEST PUSH2 0xBF PUSH2 0x1B5 CALLDATASIZE PUSH1 0x4 PUSH2 0x5EA JUMP JUMPDEST PUSH2 0x482 JUMP JUMPDEST CALLVALUE DUP1 ISZERO PUSH2 0x1C6 JUMPI PUSH1 0x0 DUP1 REVERT JUMPDEST POP PUSH2 0xDF PUSH2 0x1D5 CALLDATASIZE PUSH1 0x4 PUSH2 0x5BA JUMP JUMPDEST PUSH1 0x4 PUSH1 0x20 MSTORE PUSH1 0x0 SWAP1 DUP2 MSTORE PUSH1 0x40 SWAP1 KECCAK256 SLOAD DUP2 JUMP JUMPDEST CALLVALUE DUP1 ISZERO PUSH2 0x1F3 JUMPI PUSH1 0x0 DUP1 REVERT JUMPDEST POP PUSH2 0xDF PUSH1 0x2 SLOAD DUP2 JUMP JUMPDEST CALLVALUE DUP1 ISZERO PUSH2 0x209 JUMPI PUSH1 0x0 DUP1 REVERT JUMPDEST POP PUSH2 0xBF PUSH2 0x218 CALLDATASIZE PUSH1 0x4 PUSH2 0x603 JUMP JUMPDEST PUSH1 0x0 SWAP3 SWAP1 SWAP3 SSTORE PUSH1 0x1 SSTORE PUSH1 0x2 SSTORE JUMP JUMPDEST CALLVALUE DUP1 ISZERO PUSH2 0x232 JUMPI PUSH1 0x0 DUP1 REVERT JUMPDEST POP PUSH2 0x181 PUSH2 0x241 CALLDATASIZE PUSH1 0x4 PUSH2 0x5BA JUMP JUMPDEST PUSH1 0x3 PUSH1 0x20 MSTORE PUSH1 0x0 SWAP1 DUP2 MSTORE PUSH1 0x40 SWAP1 KECCAK256 SLOAD PUSH1 0xFF AND DUP2 JUMP JUMPDEST PUSH1 0x0 SLOAD CALLVALUE LT ISZERO PUSH2 0x2A6 JUMPI PUSH1 0x40 MLOAD PUSH3 0x461BCD PUSH1 0xE5 SHL DUP2 MSTORE PUSH1 0x20 PUSH1 0x4 DUP3 ADD MSTORE PUSH1 0x16 PUSH1 0x24 DUP3 ADD MSTORE PUSH22 0x496E73756666696369656E7420737769706520666565 PUSH1 0x50 SHL PUSH1 0x44 DUP3 ADD MSTORE PUSH1 0x64 ADD JUMPDEST PUSH1 0x40 MLOAD DUP1 SWAP2 SUB SWAP1 REVERT JUMPDEST PUSH1 0x40 DUP1 MLOAD CALLVALUE DUP2 MSTORE TIMESTAMP PUSH1 0x20 DUP3 ADD MSTORE CALLER SWAP2 PUSH32 0x5D01724342B7AE4B43EED5882C0FE27A14D12DF4BAD96CFFCECF3E2986205DB3 SWAP2 ADD JUMPDEST PUSH1 0x40 MLOAD DUP1 SWAP2 SUB SWAP1 LOG2 JUMP JUMPDEST PUSH1 0x2 SLOAD CALLVALUE LT ISZERO PUSH2 0x335 JUMPI PUSH1 0x40 MLOAD PUSH3 0x461BCD PUSH1 0xE5 SHL DUP2 MSTORE PUSH1 0x20 PUSH1 0x4 DUP3 ADD MSTORE PUSH1 0x18 PUSH1 0x24 DUP3 ADD MSTORE PUSH32 0x496E73756666696369656E74207072656D69756D206665650000000000000000 PUSH1 0x44 DUP3 ADD MSTORE PUSH1 0x64 ADD PUSH2 0x29D JUMP JUMPDEST CALLER PUSH1 0x0 SWAP1 DUP2 MSTORE PUSH1 0x3 PUSH1 0x20 MSTORE PUSH1 0x40 SWAP1 KECCAK256 SLOAD PUSH1 0xFF AND ISZERO PUSH2 0x387 JUMPI PUSH1 0x40 MLOAD PUSH3 0x461BCD PUSH1 0xE5 SHL DUP2 MSTORE PUSH1 0x20 PUSH1 0x4 DUP3 ADD MSTORE PUSH1 0xF PUSH1 0x24 DUP3 ADD MSTORE PUSH15 0x416C7265616479207072656D69756D PUSH1 0x88 SHL PUSH1 0x44 DUP3 ADD MSTORE PUSH1 0x64 ADD PUSH2 0x29D JUMP JUMPDEST CALLER PUSH1 0x0 DUP2 DUP2 MSTORE PUSH1 0x3 PUSH1 0x20 MSTORE PUSH1 0x40 SWAP1 DUP2 SWAP1 KECCAK256 DUP1 SLOAD PUSH1 0xFF NOT AND PUSH1 0x1 OR SWAP1 SSTORE MLOAD PUSH32 0x1D00A1BC2F11F9E4061E0F19FF5A272E28DC83FE00E60A0C72A40DCEB34EE506 SWAP1 PUSH2 0x2D9 SWAP1 TIMESTAMP DUP2 MSTORE PUSH1 0x20 ADD SWAP1 JUMP JUMPDEST CALLER PUSH1 0x0 SWAP1 DUP2 MSTORE PUSH1 0x4 PUSH1 0x20 MSTORE PUSH1 0x40 SWAP1 KECCAK256 SLOAD PUSH2 0x424 JUMPI PUSH1 0x40 MLOAD PUSH3 0x461BCD PUSH1 0xE5 SHL DUP2 MSTORE PUSH1 0x20 PUSH1 0x4 DUP3 ADD MSTORE PUSH1 0x12 PUSH1 0x24 DUP3 ADD MSTORE PUSH18 0x4E6F206D6573736167652063726564697473 PUSH1 0x70 SHL PUSH1 0x44 DUP3 ADD MSTORE PUSH1 0x64 ADD PUSH2 0x29D JUMP JUMPDEST CALLER PUSH1 0x0 SWAP1 DUP2 MSTORE PUSH1 0x4 PUSH1 0x20 MSTORE PUSH1 0x40 DUP2 KECCAK256 DUP1 SLOAD SWAP2 PUSH2 0x43F DUP4 PUSH2 0x645 JUMP JUMPDEST SWAP1 SWAP2 SSTORE POP POP PUSH1 0x40 DUP1 MLOAD DUP3 DUP2 MSTORE TIMESTAMP PUSH1 0x20 DUP3 ADD MSTORE DUP4 SWAP2 PUSH32 0x92C49139B3484C50631DF7BADEEE401D454F0577900E9365FD47D70E93C8BF1F SWAP2 ADD PUSH1 0x40 MLOAD DUP1 SWAP2 SUB SWAP1 LOG2 POP POP JUMP JUMPDEST PUSH1 0x0 DUP2 GT PUSH2 0x4D2 JUMPI PUSH1 0x40 MLOAD PUSH3 0x461BCD PUSH1 0xE5 SHL DUP2 MSTORE PUSH1 0x20 PUSH1 0x4 DUP3 ADD MSTORE PUSH1 0x1B PUSH1 0x24 DUP3 ADD MSTORE PUSH32 0x4D75737420627579206174206C656173742031206D6573736167650000000000 PUSH1 0x44 DUP3 ADD MSTORE PUSH1 0x64 ADD PUSH2 0x29D JUMP JUMPDEST DUP1 PUSH1 0x1 SLOAD PUSH2 0x4E0 SWAP2 SWAP1 PUSH2 0x65C JUMP JUMPDEST CALLVALUE LT ISZERO PUSH2 0x52F JUMPI PUSH1 0x40 MLOAD PUSH3 0x461BCD PUSH1 0xE5 SHL DUP2 MSTORE PUSH1 0x20 PUSH1 0x4 DUP3 ADD MSTORE PUSH1 0x18 PUSH1 0x24 DUP3 ADD MSTORE PUSH32 0x496E73756666696369656E74206D657373616765206665650000000000000000 PUSH1 0x44 DUP3 ADD MSTORE PUSH1 0x64 ADD PUSH2 0x29D JUMP JUMPDEST CALLER PUSH1 0x0 SWAP1 DUP2 MSTORE PUSH1 0x4 PUSH1 0x20 MSTORE PUSH1 0x40 DUP2 KECCAK256 DUP1 SLOAD DUP4 SWAP3 SWAP1 PUSH2 0x54E SWAP1 DUP5 SWAP1 PUSH2 0x679 JUMP JUMPDEST SWAP1 SWAP2 SSTORE POP POP PUSH1 0x40 DUP1 MLOAD CALLVALUE DUP2 MSTORE PUSH1 0x20 DUP2 ADD DUP4 SWAP1 MSTORE TIMESTAMP DUP2 DUP4 ADD MSTORE SWAP1 MLOAD CALLER SWAP2 PUSH32 0x15A9E60222E2E35396C069619078DD2BE790E550926A626835872292643B142E SWAP2 SWAP1 DUP2 SWAP1 SUB PUSH1 0x60 ADD SWAP1 LOG2 POP JUMP JUMPDEST PUSH1 0x0 DUP1 PUSH1 0x40 DUP4 DUP6 SUB SLT ISZERO PUSH2 0x5AB JUMPI PUSH1 0x0 DUP1 REVERT JUMPDEST POP POP DUP1 CALLDATALOAD SWAP3 PUSH1 0x20 SWAP1 SWAP2 ADD CALLDATALOAD SWAP2 POP JUMP JUMPDEST PUSH1 0x0 PUSH1 0x20 DUP3 DUP5 SUB SLT ISZERO PUSH2 0x5CC JUMPI PUSH1 0x0 DUP1 REVERT JUMPDEST DUP2 CALLDATALOAD PUSH1 0x1 PUSH1 0x1 PUSH1 0xA0 SHL SUB DUP2 AND DUP2 EQ PUSH2 0x5E3 JUMPI PUSH1 0x0 DUP1 REVERT JUMPDEST SWAP4 SWAP3 POP POP POP JUMP JUMPDEST PUSH1 0x0 PUSH1 0x20 DUP3 DUP5 SUB SLT ISZERO PUSH2 0x5FC JUMPI PUSH1 0x0 DUP1 REVERT JUMPDEST POP CALLDATALOAD SWAP2 SWAP1 POP JUMP JUMPDEST PUSH1 0x0 DUP1 PUSH1 0x0 PUSH1 0x60 DUP5 DUP7 SUB SLT ISZERO PUSH2 0x618 JUMPI PUSH1 0x0 DUP1 REVERT JUMPDEST POP POP DUP2 CALLDATALOAD SWAP4 PUSH1 0x20 DUP4 ADD CALLDATALOAD SWAP4 POP PUSH1 0x40 SWAP1 SWAP3 ADD CALLDATALOAD SWAP2 SWAP1 POP JUMP JUMPDEST PUSH4 0x4E487B71 PUSH1 0xE0 SHL PUSH1 0x0 MSTORE PUSH1 0x11 PUSH1 0x4 MSTORE PUSH1 0x24 PUSH1 0x0 REVERT JUMPDEST PUSH1 0x0 DUP2 PUSH2 0x654 JUMPI PUSH2 0x654 PUSH2 0x62F JUMP JUMPDEST POP PUSH1 0x0 NOT ADD SWAP1 JUMP JUMPDEST DUP1 DUP3 MUL DUP2 ISZERO DUP3 DUP3 DIV DUP5 EQ OR PUSH2 0x673 JUMPI PUSH2 0x673 PUSH2 0x62F JUMP JUMPDEST SWAP3 SWAP2 POP POP JUMP JUMPDEST DUP1 DUP3 ADD DUP1 DUP3 GT ISZERO PUSH2 0x673 JUMPI PUSH2 0x673 PUSH2 0x62F JUMP INVALID LOG2 PUSH5 0x6970667358 0x22 SLT KECCAK256 GASPRICE SWAP8 0x4B SSTORE CREATE2 0x5E 0xCA 0xAD 0x5C 0xD4 CODECOPY ADD PUSH11 0x8CA1BEC18EE5E344F45229 PUSH0 DUP16 0xB6 CALLDATASIZE DUP14 0xBF 0xB3 NUMBER PUSH5 0x736F6C6343 STOP ADDMOD EQ STOP CALLER "},"methodIdentifiers":{"getMessageCredits(address)":"5a1b8532","isPremium(address)":"742fe0d4","messageCredits(address)":"c4c8ffe3","messageFee()":"1a90a219","payForMessages(uint256)":"a9cb7dd3","payForSwipe()":"1327cd4c","premiumUnlockFee()":"c5901fb2","premiumUsers(address)":"e2b2d482","setFees(uint256,uint256,uint256)":"cec10c11","storeMessageProof(bytes32,bytes32)":"48e4d030","swipeFee()":"8477e0c1","unlockPremium()":"17e28b06"}}}}}